:100000000C946D000C9495000C9495000C94950044
:100010000C9495000C9495000C9495000C9495000C
:100020000C9495000C9495000C9495000C949500FC
:100030000C9495000C9495000C9495000C949500EC
:100040000C9402030C9495000C9472030C944C03D2
:100050000C9495000C9495000C9495000C949500CC
:100060000C9495000C94950005A84CCDB2D44EB9D3
:100070003836A9020C50B9918688083CA6AAAA2A4B
:10008000BE000000803F00000000250028002B007B
:10009000040404040404040402020202020203032E
:1000A0000303030301020408102040800102040836
:1000B00010200102040810200000000800020100C6
:1000C0000003040700000000000000006364696E84
:1000D0006F70737578585B00D50611241FBECFEF83
:1000E000D8E0DEBFCDBF11E0A0E0B1E0E8E1FBE188
:1000F00002C005900D92A438B107D9F722E0A4E818
:10010000B1E001C01D92AE3CB207E1F710E0CDE6D0
:10011000D0E004C02197FE010E942F07CC36D10702
:10012000C9F70E94A4030C948A0D0C940000E0917E
:100130003102F09132020190F081E02D682F81E3CD
:1001400092E009943FB7F89480912D0290912E028D
:10015000A0912F02B091300226B5A89B05C02F3F79
:1001600019F00196A11DB11D3FBFBA2FA92F982FDD
:100170008827820F911DA11DB11DBC01CD0142E058
:10018000660F771F881F991F4A95D1F708952FB7DB
:10019000F8946091290270912A0280912B0290912B
:1001A0002C022FBF0895CF92DF92EF92FF920F9310
:1001B0001F93CF93DF936C017A018B01C0E0D0E0F5
:1001C000CE15DF0589F0D8016D918D01D601ED9135
:1001D000FC910190F081E02DC6010995892B11F465
:1001E0007E0102C02196ECCFC701DF91CF911F9114
:1001F0000F91FF90EF90DF90CF900895FC01918DCB
:10020000828D981761F0828DDF01A80FB11D5D9678
:100210008C91928D9F5F9F73928F90E008958FEFE6
:100220009FEF0895FC01918D828D981731F0828D9A
:10023000E80FF11D858D90E008958FEF9FEF0895F1
:10024000FC01918D228D892F90E0805C9F4F821B55
:1002500091098F739927089581E392E00E9420010C
:1002600021E0892B09F420E0822F0895FC01848D80
:10027000DF01A80FB11DA35ABF4F2C91848D90E0D0
:1002800001968F739927848FA689B7892C93A089AB
:10029000B1898C9180648C93938D848D981306C062
:1002A0000288F389E02D80818F7D80830895EF920D
:1002B000FF920F931F93CF93DF93EC0181E0888F20
:1002C0009B8D8C8D981305C0E889F989808185FD07
:1002D00024C0F62E0B8D10E00F5F1F4F0F731127F8
:1002E000E02E8C8DE8120CC00FB607FCFACFE8891F
:1002F000F989808185FFF5CFCE010E943601F1CFCB
:100300008B8DFE01E80FF11DE35AFF4FF0820B8F3A
:10031000EA89FB898081806207C0EE89FF8960835A
:10032000E889F98980818064808381E090E0DF91B1
:10033000CF911F910F91FF90EF900895CF93DF938E
:10034000EC01888D8823C9F0EA89FB89808185FDCD
:1003500005C0A889B9898C9186FD0FC00FB607FC2E
:10036000F5CF808185FFF2CFA889B9898C9185FF6F
:10037000EDCFCE010E943601E7CFDF91CF910895F6
:1003800080E090E0892B29F00E942C0181110C94CF
:1003900000000895009769F0FC0101900020E9F742
:1003A0003197AF01481B590BBC0181E392E00C94DB
:1003B000D30080E090E00895CF93DF930E94CA01BC
:1003C000EC0180E191E00E94CA018C0F9D1FDF913A
:1003D000CF9108958F929F92AF92BF920F931F93E8
:1003E000CF93DF93CDB7DEB7A1970FB6F894DEBFFA
:1003F0000FBECDBF19A2423008F44AE08E010F5D56
:100400001F4F842E912CA12CB12CA50194010E9488
:100410000207E62FB901CA0101501109EA3014F4AC
:10042000E05D01C0E95CD801EC93232B242B252B44
:1004300061F7C8010E94CA01A1960FB6F894DEBF09
:100440000FBECDBFDF91CF911F910F91BF90AF90A5
:100450009F908F9008954F925F926F927F928F92AC
:100460009F92AF92BF92CF92DF92EF92FF926B0179
:100470007C01B42E9B01AC010E948309882319F0F2
:1004800083E191E027C026013701E89477F82FEF48
:100490003FEF4FE75FE7C301B2010E94830981117B
:1004A0000DC02FEF3FEF4FE75FE7C301B2010E949E
:1004B000B10718161CF487E191E00CC02FEF3FEF55
:1004C0004FE75FE4C701B6010E940909181684F4DA
:1004D0008BE191E0FF90EF90DF90CF90BF90AF90D5
:1004E0009F908F907F906F905F904F900C94CA0177
:1004F0002FEF3FEF4FE75FECC701B6010E94B10756
:1005000087FDE6CF20E030E0A901C701B6010E94D7
:10051000B10787FF09C08DE20E9497004C01F7FAEE
:10052000F094F7F8F09402C0812C912CA12C60E09B
:1005300070E080E09FE3AB1441F020E030E040E267
:1005400051E40E94B607A394F6CF9B01AC01C7010A
:10055000B6010E9445072B013C010E9428086B014F
:100560007C010E9457089B01AC01C301B2010E94AB
:1005700044072B013C014AE0C701B6010E94EA0191
:100580007C01E80CF91CBB2031F08FE191E00E9466
:10059000CA01E80EF91EDB2CDD2021F120E030E05D
:1005A00040E251E4C301B2010E940E092B013C015B
:1005B0000E9428084B01A12CB12C4AE0C501B401CE
:1005C0000E94EA01E80EF91EC501B4010E94570815
:1005D0009B01AC01C301B2010E9444072B013C0105
:1005E000DA94DACFC701FF90EF90DF90CF90BF9001
:1005F000AF909F908F907F906F905F904F900895F5
:100600000E94100A1F920F920FB60F9211242F937F
:100610003F938F939F93AF93BF93809129029091C3
:100620002A02A0912B02B0912C023091280223E0E3
:10063000230F2D3720F40196A11DB11D05C026E81A
:10064000230F0296A11DB11D209328028093290239
:1006500090932A02A0932B02B0932C0280912D023A
:1006600090912E02A0912F02B09130020196A11D0F
:10067000B11D80932D0290932E02A0932F02B09370
:100680003002BF91AF919F918F913F912F910F9029
:100690000FBE0F901F9018951F920F920FB60F92DA
:1006A00011242F933F934F935F936F937F938F9377
:1006B0009F93AF93BF93EF93FF9381E392E00E94E8
:1006C0003601FF91EF91BF91AF919F918F917F91F3
:1006D0006F915F914F913F912F910F900FBE0F90AF
:1006E0001F9018951F920F920FB60F9211242F93FF
:1006F0008F939F93EF93FF93E0914102F091420219
:100700008081E0914702F091480282FD12C0908101
:1007100080914A028F5F8F7320914B02821751F0B4
:10072000E0914A02F0E0EF5CFD4F958F80934A0222
:1007300001C08081FF91EF919F918F912F910F9038
:100740000FBE0F901F901895789484B5826084BD79
:1007500084B5816084BD85B5826085BD85B58160C5
:1007600085BD80916E00816080936E001092810043
:1007700080918100826080938100809181008160FE
:1007800080938100809180008160809380008091BF
:10079000B10084608093B1008091B000816080934B
:1007A000B00080917A00846080937A0080917A0012
:1007B000826080937A0080917A00816080937A00D1
:1007C00080917A00806880937A001092C1000E9424
:1007D000C7006093BC017093BD018093BE019093EC
:1007E000BF01E0914102F091420282E08083E091FA
:1007F0003D02F0913E021082E0913F02F0914002F2
:1008000080E1808310924902E0914502F091460216
:1008100086E08083E0914302F09144028081806110
:100820008083E0914302F09144028081886080835C
:10083000E0914302F0914402808180688083E091DE
:100840004302F091440280818F7D808388EE93E0A3
:100850009093A1018093A00180ED97E09093A30174
:100860008093A20188EB9BE09093A5018093A40163
:1008700080EA9FE09093A7018093A60188E893E126
:100880009093A9018093A80180E797E19093AB0131
:100890008093AA0187E594E09093AD018093AC0129
:1008A0008EEA98E09093AF018093AE0185E09DE0E1
:1008B0009093B1018093B0018CE591E19093B301E5
:1008C0008093B20183EB95E19093B5018093B401DD
:1008D0008AE09AE19093B7018093B60165EC262EE9
:1008E00060E0362E78EE472E73E0572E612C712C87
:1008F0002091270281E0282720932702F10194917B
:10090000E1EBF0E08491EDE9F0E03491332309F478
:100910003DC0992339F1933091F038F49130A9F02A
:10092000923001F594B59F7D12C0973091F09830C8
:10093000A1F09430B9F4909180009F7D03C0909114
:1009400080009F77909380000DC094B59F7794BDF1
:1009500009C09091B0009F7703C09091B0009F7D37
:100960009093B000E32FF0E0EE0FFF1FEA57FF4F28
:10097000A591B4919FB7F894211104C02C91809552
:10098000822302C02C91822B8C939FBF81E392E043
:100990000E942001181619060CF0D6C181E392E0DE
:1009A0000E94FE0080932602C4EFD1E0FE01E45FC6
:1009B000F140809126028A3041F0899381E392E0F0
:1009C0000E94FE0080932602F1CFEC50FE4F808300
:1009D000ABEDB1E0E4EFF1E09F01245F31408191A4
:1009E000803211F08D93F8CFF901E552FE4F10825D
:1009F000A2ECB1E080E090E0FC01E20FF31FEC50CC
:100A0000FE4F41814A3019F04D930196F5CF22EC0B
:100A100031E0FC01EE53FE4F108280EC91E09F9399
:100A20008F9381E291E09F938F933F932F930E9446
:100A30001E0A0E94C7000091BC011091BD012091C7
:100A4000BE013091BF01DC01CB01801B910BA20BD9
:100A5000B30B8093B8019093B901A093BA01B093FE
:100A6000BB01C0919201D091930100EA11E044E9E9
:100A7000E42E41E0F42E0F900F900F900F900F9006
:100A80000F90F801619171918F0180E090E00E94D8
:100A9000570823E23BED49E75FE30E940E0920E09F
:100AA00030E04AE754E40E9445070E942808F70115
:100AB000619371937F01C60FD71FF1E00C3A1F07B6
:100AC00001F7D0939301C09392018CE292E090934E
:100AD0008701809386019093890180938801909388
:100AE0008B0180938A0190938D0180938C01909368
:100AF0008F0180938E01909391018093900164E225
:100B000071E08BED91E00E94150A892B09F050C02D
:100B100061E771E082EC91E00E94150A892B59F59A
:100B2000C12CD12C76010E94C7009B01AC01AAE028
:100B3000B0E00E942407A30192010E940207CA01AB
:100B4000B9016C0D7D1D8E1D9F1D0E9457080E94CE
:100B50007B094AE00E942B0280E20E9497002EE16E
:100B6000C20ED11CE11CF11C64EBC616D104E104D9
:100B7000F104C9F616C08091C0019091C1019C0199
:100B8000215031092630310580F4880F991FFC016E
:100B9000EC56FE4F6081718180E090E04AE00E9457
:100BA000EA018AE00E949700CFC08BE291E0C5C0C5
:100BB00061E371E08BED91E00E94150A892B09F049
:100BC00051C061E771E082EC91E00E94150A892B27
:100BD00089F5C12CD12C76010E94C7009B01AC0184
:100BE000A8EEB3E00E942407A30192010E9402072D
:100BF000CA01B9016C0D7D1D8E1D9F1D0E945708F5
:100C00000E947B0920E030E040EA50E40E940E0997
:100C10004AE00E942B0280E20E9497007EE1C70E0C
:100C2000D11CE11CF11C84EBC816D104E104F104D1
:100C300099F6B7CF8091C0019091C1019C012150DC
:100C400031092630310508F0B0CF880F991FFC011B
:100C5000EA57FE4F6081718180E090E04AE00E9497
:100C6000EA0169C067E371E08BED91E00E94150A2B
:100C7000892B61F48CEC8093850142E06CEC70E090
:100C800080E090E00E94EA0180E28CCF6EE371E0A8
:100C90008BED91E00E94150A892B51F582EC91E0D1
:100CA0000E94DC01E2ECF1E080E020E030E0AF0106
:100CB000425C51409191992381F0913349F460E273
:100CC00070E002C0759567954A95E2F7862BEFCFE5
:100CD000903369F321E030E0EACF80938401213042
:100CE000310519F485E491E02DC082E691E02AC037
:100CF0006CE671E08BED91E00E94150A892B01F5FD
:100D00000E94C7009B01AC01AAE0B0E00E9424074A
:100D1000A30192010E940207CA01B9010E9457086B
:100D20000E947B0920E030E040E251E40E940E097D
:100D30004AE00E942B0280E191E00E94CA0104C0B7
:100D400083E791E00E94DC010E94A2004B015C015C
:100D500080ED97E0A0E0B0E06C017D010E94A20070
:100D6000DC01CB0188199909AA09BB09883E934087
:100D7000A105B10588F071E0C71AD108E108F108B2
:100D800088EE880E83E0981EA11CB11CC114D1040A
:100D9000E104F10419F706C0D701C601CD28CE2819
:100DA000CF28D1F60E94C001A3CDE1E3F2E0138287
:100DB000128288EE93E0A0E0B0E084839583A6835E
:100DC000B78384E091E09183808385EC90E0958700
:100DD000848784EC90E09787868780EC90E0918B05
:100DE000808B81EC90E0938B828B82EC90E0958BF2
:100DF000848B86EC90E0978B868B118E128E138EEF
:100E0000148E0895A1E21A2EAA1BBB1BFD010DC072
:100E1000AA1FBB1FEE1FFF1FA217B307E407F507AA
:100E200020F0A21BB30BE40BF50B661F771F881F86
:100E3000991F1A9469F760957095809590959B011C
:100E4000AC01BD01CF0108950E943507A59F900D0B
:100E5000B49F900DA49F800D911D11240895EE0F55
:100E6000FF1F0590F491E02D0994A29FB001B39F5C
:100E7000C001A39F700D811D1124911DB29F700DA3
:100E8000811D1124911D08955058BB27AA270E9447
:100E90005C070C94CF080E94C10838F00E94C80873
:100EA00020F039F49F3F19F426F40C94BE080EF498
:100EB000E095E7FB0C94B808E92F0E94E00858F38E
:100EC000BA17620773078407950720F079F4A6F52F
:100ED0000C9402090EF4E0950B2EBA2FA02D0B01F5
:100EE000B90190010C01CA01A0011124FF27591B6F
:100EF00099F0593F50F4503E68F11A16F040A22F75
:100F0000232F342F4427585FF3CF469537952795E5
:100F1000A795F0405395C9F77EF41F16BA0B620BE4
:100F2000730B840BBAF09150A1F0FF0FBB1F661F2B
:100F3000771F881FC2F70EC0BA0F621F731F841F6E
:100F400048F4879577956795B795F7959E3F08F094
:100F5000B0CF9395880F08F09927EE0F9795879556
:100F600008950E94940808F481E008950E94CA0739
:100F70000C94CF080E94C80858F00E94C10840F0A5
:100F800029F45F3F29F00C94B80851110C9403091F
:100F90000C94BE080E94E00868F39923B1F355232E
:100FA00091F3951B550BBB27AA276217730784077C
:100FB00038F09F5F5F4F220F331F441FAA1FA9F312
:100FC00035D00E2E3AF0E0E832D091505040E69500
:100FD000001CCAF72BD0FE2F29D0660F771F881F61
:100FE000BB1F261737074807AB07B0E809F0BB0B54
:100FF000802DBF01FF2793585F4F3AF09E3F510568
:1010000078F00C94B8080C9403095F3FE4F3983E21
:10101000D4F3869577956795B795F7959F5FC9F750
:10102000880F911D9695879597F90895E1E0660FD1
:10103000771F881FBB1F621773078407BA0720F04A
:10104000621B730B840BBA0BEE1F88F7E0950895B3
:101050000E94E80888F09F5798F0B92F9927B75158
:10106000B0F0E1F0660F771F881F991F1AF0BA954C
:10107000C9F714C0B13091F00E940209B1E008959F
:101080000C940209672F782F8827B85F39F0B93F91
:10109000CCF3869577956795B395D9F73EF49095FF
:1010A0008095709561957F4F8F4F9F4F0895E8947D
:1010B00009C097FB3EF490958095709561957F4FA0
:1010C0008F4F9F4F9923A9F0F92F96E9BB2793954E
:1010D000F695879577956795B795F111F8CFFAF45E
:1010E000BB0F11F460FF1BC06F5F7F4F8F4F9F4F8F
:1010F00016C0882311F096E911C0772321F09EE8ED
:10110000872F762F05C0662371F096E8862F70E052
:1011100060E02AF09A95660F771F881FDAF7880F2C
:101120009695879597F90895990F0008550FAA0B82
:10113000E0E8FEEF16161706E807F907C0F01216EA
:101140001306E407F50798F0621B730B840B950BED
:1011500039F40A2661F0232B242B252B21F4089542
:101160000A2609F4A140A6958FEF811D811D0895DF
:1011700097F99F6780E870E060E008959FEF80EC4A
:10118000089500240A9416161706180609060895ED
:1011900000240A9412161306140605060895092E53
:1011A0000394000C11F4882352F0BB0F40F4BF2BC2
:1011B00011F460FF04C06F5F7F4F8F4F9F4F089502
:1011C00057FD9058440F551F59F05F3F71F04795F8
:1011D000880F97FB991F61F09F3F79F087950895DD
:1011E000121613061406551FF2CF4695F1DF08C0FC
:1011F000161617061806991FF1CF86957105610519
:1012000008940895E894BB2766277727CB0197F9C0
:1012100008950E94940808F48FEF08950E94210910
:101220000C94CF080E94C10838F00E94C80820F032
:10123000952311F00C94B8080C94BE0811240C945A
:1012400003090E94E00870F3959FC1F3950F50E0E9
:10125000551F629FF001729FBB27F00DB11D639F68
:10126000AA27F00DB11DAA1F649F6627B00DA11D0E
:10127000661F829F2227B00DA11D621F739FB00DB4
:10128000A11D621F839FA00D611D221F749F332724
:10129000A00D611D231F849F600D211D822F762FBD
:1012A0006A2F11249F5750409AF0F1F088234AF09A
:1012B000EE0FFF1FBB1F661F771F881F9150504006
:1012C000A9F79E3F510580F00C94B8080C940309CF
:1012D0005F3FE4F3983ED4F3869577956795B7958D
:1012E000F795E7959F5FC1F7FE2B880F911D9695A7
:1012F000879597F908959F930E948A090F9007FC9C
:10130000EE5F0C94B3090E949408880B990B089522
:101310000C94BE080E94E808D8F3E894E0E0BB27EC
:101320009F57F0F02AED3FE049EC06C0EE0FBB0FEF
:10133000661F771F881F28F0B23A62077307840779
:1013400028F0B25A620B730B840BE3959A9572F7EF
:10135000803830F49A95BB0F661F771F881FD2F72D
:1013600090480C94C909EF93E0FF07C0A2EA2AED68
:101370003FE049EC5FEB0E945C070E94CF080F90B2
:10138000039401FC9058E8E6F0E00C94D5099F3FE7
:1013900031F0915020F4879577956795B795880F30
:1013A000911D9695879597F908959F938F937F93B5
:1013B0006F93FF93EF939B01AC010E940E09EF9195
:1013C000FF910E94E9092F913F914F915F910C94F9
:1013D0000E09DF93CF931F930F93FF92EF92DF924B
:1013E0007B018C01689406C0DA2EEF010E9421096E
:1013F000FE01E894A5912591359145915591A6F36B
:10140000EF010E945C07FE019701A801DA9469F7D9
:10141000DF90EF90FF900F911F91CF91DF91089592
:1014200081E090E0F8940C948A0DFB01DC018D9131
:10143000019080190110D9F3990B0895AEE0B0E046
:10144000E4E2FAE00C94630D85E08C838B899C893F
:101450009A838983AE01495E5F4F6D897E89CE0193
:1014600001960E94B70B2E96E2E00C947F0D20FDB2
:1014700009C0FC0123FD05C022FF02C07383628303
:1014800051834083089544FD10C046FD10C0DB0128
:10149000FC01AA0FBB1FEE1FFF1F1094D1F76A0FAC
:1014A0007B1F8E1F9F1F31E003C033E001C034E07B
:1014B000660F771F881F991F3150D1F7620F711D7A
:1014C000811D911D08950F931F93CF93DF938C017E
:1014D000C8010E94F90CEC0197FD08C00E94E50CC0
:1014E000892BB1F7B801CE010E94370DCE01DF91F3
:1014F000CF911F910F910895A1E0B0E0E2E8FAE0EA
:101500000C94590D8C01C62E7A0129830E94F90C86
:10151000AC01552729814B32510521F04D3251053F
:1015200069F42068CA94C11002C080E076C0C80186
:1015300029830E94F90C298197FDF7CF322F3D7F37
:10154000D32E322F307349F5803339F5BB24BA944A
:10155000BC0C09F44EC0C80129830E94F90C2981F2
:1015600097FD47C0382F3F7D383569F48D2D826453
:10157000D82ECA94CA94CC20E1F1C8010E94F90C7B
:1015800097FF0BC036C026FF04C02D2D2260D22E3F
:1015900003C03D2D3261D32ECB2C812C912C5401D4
:1015A00020ED280F283080F0D4FE04C0B8010E943E
:1015B000370D1CC02A3040F0D6FEF8CF2F7D3FEE0D
:1015C000320F363098F727504D2DC501B4010E94D7
:1015D000430A4B015C018D2D8260D82ECA94CC2029
:1015E00059F0C8010E94F90C97FFDACFD1FC04C072
:1015F0009CCF812C912C5401D7FE08C0B094A094AC
:1016000090948094811C911CA11CB11C2D2DB501BE
:10161000A401C7010E94370A81E02196ECE00C94F6
:10162000750DA1E2B0E0E7E1FBE00C94570D5C0121
:101630007A01CE0101966C0180E2F60111928A9541
:10164000E9F7F501838040E050E0912C712C70E0C7
:10165000A1E0B0E0F90183FC859183FE81918F01C7
:10166000982F9F01811103C080E090E07CC08E35EF
:1016700019F44115510549F1E72FF0E0E417F5079A
:101680003CF48D3559F18D3219F4772001F103C006
:10169000711001C0982E892F8695869586958601B2
:1016A000080F111D892F87703D0101C0660C8A95B6
:1016B000EAF7F801808186298083991559F09915F8
:1016C00010F49F5FE8CF9150E6CF71E004C077241B
:1016D000739401C0712C4F5F5F4FBCCF772019F01E
:1016E0008E8180628E83711103C09924939416C0F9
:1016F000F6019E012F5D3F4F808180958193E21717
:10170000F307D1F7F2CFE114F10429F0F701808358
:10171000C70101967C016150912CF9F0C50169A3C4
:101720000E94F90C69A197FD16C0282F26952695D1
:101730002695F601E20FF11D208130E0AC014770E3
:10174000552702C0359527954A95E2F720FDDBCF56
:10175000B5010E94370D911087CFE114F10411F00B
:10176000F7011082C801A196EEE00C94730D4F9220
:101770005F927F928F929F92AF92BF92CF92DF92B1
:10178000EF92FF920F931F93CF93DF931F92CDB7EA
:10179000DEB76C012B015A01FC0117821682712CF5
:1017A000F601F380F201F3FC8591F3FE8191382F6D
:1017B0002F01882309F4F3C090E039830E94E50CDF
:1017C0003981892B21F0C6010E94630AE9CF3532A5
:1017D00041F4F201F3FC3591F3FE31912F013532E2
:1017E00069F4C60139830E94F90C398197FDD5C08F
:1017F0003817B1F2B6010E94370DD1C03A3239F430
:10180000F3FC3591F3FE31912F0151E001C050E01E
:10181000420110E020ED230F2A3090F45260612F36
:1018200070E080E090E040E259830E94430A162F66
:10183000F401F3FC3591F3FE31914F015981EACF68
:10184000052F232F240151FF03C0111102C0A7C08F
:101850001FEF383619F03C3659F011C0F401F3FC93
:101860002591F3FE21912F01283649F4052F0860B8
:101870000460F201F3FC2591F3FE21912F01222354
:1018800009F48DC0622F70E08CEC90E029830E94F7
:10189000EE0C2981892B09F482C000FD07C0F501F7
:1018A000E080F180C50102965C0102C0E12CF12CC0
:1018B0002E3651F4F6014681578160E070E0202F0A
:1018C000C7010E94370A6CCF233691F401FF11E063
:1018D000C6010E94F90C97FD60C0E114F10429F0E3
:1018E000F7018083C70101967C01115089F751C02F
:1018F0002B3559F49201A701612FC6010E94110BEB
:101900002C01892B09F045C03FC0C60129830E94E4
:10191000630A298197FD41C02F3659F128F42436F6
:1019200031F1293649F127C0233769F02537F9F01D
:1019300022C0E114F10429F0F7018082C701019669
:101940007C01115071F0C6010E94F90C4C0197FD09
:1019500008C00E94E50C892B61F3B601C4010E9406
:10196000370DE114F104A9F0F701108212C00062F2
:1019700003C0006101C00064202FA701612FC601D0
:101980000E947C0A811105C0F6018381807329F4CD
:1019900006C000FD05CF739403CF772019F0872D83
:1019A00090E002C08FEF9FEF0F90DF91CF911F91DA
:1019B0000F91FF90EF90DF90CF90BF90AF909F90EE
:1019C0008F907F905F904F90089591110C94500DDF
:1019D000803219F089508550C8F70895FC010590B0
:1019E000061621F00020D9F7C00108953197CF01E4
:1019F0000895CF93DF93EC012B8120FF33C026FFA6
:101A00000AC02F7B2B838E819F8101969F838E83BB
:101A10008A8190E029C022FF0FC0E881F98180818E
:101A2000082E000C990B009719F420622B831AC022
:101A30003196F983E8830EC0EA85FB85099597FF07
:101A400009C02B81019611F080E201C080E1822B58
:101A50008B8308C02E813F812F5F3F4F3F832E83B2
:101A6000992702C08FEF9FEFDF91CF910895FB017F
:101A7000238120FF12C026FD10C08F3F3FEF930748
:101A800061F082832F7D206423832681378121505A
:101A9000310937832683992708958FEF9FEF0895A3
:101AA0009927882708952F923F924F925F926F92C5
:101AB0007F928F929F92AF92BF92CF92DF92EF92DE
:101AC000FF920F931F93CF93DF93CDB7DEB7CA1B5F
:101AD000DB0B0FB6F894DEBF0FBECDBF09942A888A
:101AE000398848885F846E847D848C849B84AA8432
:101AF000B984C884DF80EE80FD800C811B81AA81BF
:101B0000B981CE0FD11D0FB6F894DEBF0FBECDBF89
:081B1000ED010895F894FFCFE8
:101B1800000000005701D3002001FE0012019E01C1
:101B28000D0A006E616E00696E66006F7666002EA3
:101B3800002564006D5643454C4C004552524F52A7
:101B4800005443454C4C00524243454C4C005342D0
:101B580043454C4C0057524F4E472043454C4C2070
:101B680042414C414E43494E47204249544D41530E
:101B78004B00524943455655544F210054424D534A
:101B8800204100554E4B4E4F574E20434F4D4D412F
:041B98004E440000B7
:00000001FF
